:1000000012C021C020C01FC01EC01DC01CC01BC00C
:100010001AC019C018C017C016C015C069C113C0D6
:1000200012C011C010C011241FBECFE5D4E0DEBF46
:10003000CDBF10E0A0E6B0E001C01D92A836B10728
:10004000E1F702D0CAC1DCCFDF93CF9300D00F928B
:10005000CDB7DEB719821A821B8281E390E0FC01E2
:1000600010828AE290E028E0FC01208380E490E0A6
:1000700021E0FC01208380E490E02EE8FC01208355
:1000800089E290E020EAFC01208387E290E020E60C
:10009000FC01208386E290E026E230E0F901208135
:1000A0002F68FC01208387E290E027E230E0F9012D
:1000B00020812062FC01208386E290E026E230E08D
:1000C000F90120812064FC012083000086E290E099
:1000D000FC018081882F90E0807190700097B1F3CF
:1000E00085E290E0FC018081898387E290E027E24D
:1000F00030E0F90120812160FC01208386E290E05C
:1001000026E230E0F90120812064FC012083000018
:1001100086E290E0FC018081882F90E080719070F1
:100120000097B1F385E290E0FC0180818A8387E249
:1001300090E0FC0120812F5FFC01208386E290E0AB
:1001400026E230E0F90120812064FC0120830000D8
:1001500086E290E0FC018081882F90E080719070B1
:100160000097B1F385E290E0FC0180818B8387E208
:1001700090E020E6FC012083789486E290E026E27D
:1001800030E0F90120812064FC012083909160001F
:100190008981F92FF81B8F2F809366009091610061
:1001A0008A81292F281B822F809367009B81809151
:1001B0006200E92FE81B8E2F809365008091660016
:1001C000882344F48091660081958093660081E0E5
:1001D00080936400809167008E3F54F480916700A3
:1001E00081958093670080916400826080936400B1
:1001F0008091650083304CF085E0809363008091AE
:1002000064008061809364000AC0809165008E3F25
:1002100024F485E08093630002C01092630080E3C1
:1002200090E0FC01808188235CF0F894809160006C
:100230008983809161008A83809162008B837894A6
:1002400080E390E0FC018081882F90E088709070BE
:10025000009729F48091640088608093640080E3B3
:1002600090E0FC018081882F90E08470907000976E
:1002700029F480916400846080936400809166001A
:100280008F7380936600809167008F7380936700FF
:10029000809164008F7380936400809163008F73FA
:1002A00080936300809166008068809366008091EF
:1002B000640080648093640080916300806C80930C
:1002C0006300809166006FD0809167006CD0809150
:1002D000640069D08091630066D0109267008091BD
:1002E00067008093660080916600809364004ECF23
:1002F0001F920F920FB60F9211242F933F938F935B
:100300009F93EF93FF93DF93CF93CDB7DEB787E251
:1003100090E0FC018081882F90E08136910569F0A2
:100320008236910589F080369105A9F485E290E046
:10033000FC018081809360000EC085E290E0FC01AA
:1003400080818093610007C085E290E0FC0180819C
:1003500080936200000087E290E0FC0120812F5F23
:10036000FC01208387E290E0FC018081833628F045
:1003700087E290E020E6FC01208386E290E026E21E
:1003800030E0F90120812064FC012083CF91DF91CE
:10039000FF91EF919F918F913F912F910F900FBE01
:1003A0000F901F901895DF93CF930F92CDB7DEB7C4
:1003B000898300008BE290E0FC018081882F90E02F
:1003C000807290700097B1F38CE290E02981FC017B
:0E03D00020830F90CF91DF910895F894FFCF16
:00000001FF
